:100000000C94D3060C941A070C941A070C941A0734
:100010000C941A070C941A070C941A070C941A07DC
:100020000C941A070C941A070C944F290C947A2AF2
:100030000C9448140C941A070C941A070C941A0781
:100040000C941A070C941A070C941A070C941A07AC
:100050000C941A070C9442240C941A070C941A0757
:100060000C941A070C941A070C941A070C941A078C
:100070000C941A070C941A070C941A070C941A077C
:100080000C941A070C941A070C941A070C941A076C
:100090000C94452C0C941A070C941A070C941A070C
:1000A0000C941A070C941A070C941A070631FF09CE
:1000B00074A1010975150026FF00952075088102BD
:1000C0000976150026FF00952075089102C00501EC
:1000D0000902A10185020901A100050919012908E8
:1000E00015002501950875018102050109300931C6
:1000F0001581257F95027508810609381581257FB0
:10010000950175088106050C0A38021581257F9531
:100110000175088106C0C005010980A10185031988
:10012000012AB700150126B700950175108100C09E
:10013000050C0901A101850419012AA00215012657
:10014000A002950175108100C00660FF0961A10140
:100150000962150026FF00952075088102096315C4
:100160000026FF00952075089102C005010906A12F
:1001700001050719E029E71500250195087501819A
:10018000029501750881010507190029FF15002650
:10019000FF009506750881000508190129059505D8
:1001A00075019102950175039101C0703A09707251
:1001B000696E742076616C7565730A643A097365BB
:1001C000742064656661756C74730A75703A092BE6
:1001D000310A646E3A092D310A6C743A092B3130B8
:1001E0000A72743A092D31300A4553432F713A0986
:1001F000717569740A0A7370656564203D206465D1
:100200006C7461202A206D61785F7370656564206D
:100210002A2028726570656174202F2074696D65CD
:100220005F746F5F6D6178290A7768657265206415
:10023000656C74613A20637572736F723D25642C2E
:1002400020776865656C3D25640A53656520687490
:1002500074703A2F2F656E2E77696B6970656469CB
:10026000612E6F72672F77696B692F4D6F7573659C
:100270005F6B6579730A004D3E20004D25753A2568
:10028000733E20003F0A003D2025750A003F0A000A
:1002900064656661756C74730A0025750A003F0A0F
:1002A000000A092D2056616C756573202D0A0071B6
:1002B0000A000A092D204D6F7573656B6579202D35
:1002C0000A0009027B00040100A0FA0904000001F1
:1002D00003010100092111010001224000070581ED
:1002E0000308000A090401000203000000092111AB
:1002F00001000122220007058203200001070503F7
:10030000032000010904020001030000000921117B
:10031000010001227B000705840320000A09040371
:100320000002030000000921110100012222000740
:1003300005850320000107050503200001120100C7
:100340000200000008EDFE00000100010200012093
:100350000354007500750056006500690053007075
:10036000006C00690074006C006500660074000099
:10037000001E0325004D0041004E0055004600417F
:100380000043005400550052004500520025000073
:1003900000040309045B435D005B445D005B535D47
:1003A000005B575D005B525D000A0025303136620C
:1003B000003A200025303258000A722F6320303175
:1003C00032333435363738394142434445460A00E2
:1003D0000A0025303258006B6579626F6172645F84
:1003E0007365745F6C65643A20005B735D004B65F8
:1003F00079626F6172642073746172742E0A000AEC
:10040000002530325820006B6579626F6172645F3D
:100410007265706F72743A20004F6E6573686F7406
:100420003A206163746976653A2025640A003F00CA
:10043000433E20000000000000000000000000001B
:1004400000000000000000000000000000000000AC
:1004500000000000000000007E0F00D4FFFFFFC777
:100460000000007800000000000000002A2B280097
:100470000000000000000000000000000000002953
:10048000000000002C1E3420212224342627252E93
:10049000362D3738271E1F202122232425263333CB
:1004A000362E37381F0405060708090A0B0C0D0EF7
:1004B0000F101112131415161718191A1B1C1D2FC3
:1004C0003130232D350405060708090A0B0C0D0EE3
:1004D0000F101112131415161718191A1B1C1D2FA3
:1004E0003130354C44454255473A20646973616266
:1004F0006C65642E0A0044454255473A20656E619A
:10050000626C65642E0A0029003A003B003C003D05
:10051000002200230000000000000035001E001F24
:10052000002000210017001C000000000000002B2C
:100530000014001A00080015000A000B000000005B
:10054000000000390004001600070009001900052A
:1005500000000000000000E10031001D001B00064B
:100560000000000000000000000000E000E300E2E6
:10057000002C000000000000000000000000003E11
:10058000003F004000410042004300440045004B52
:10059000004E0024002500260027002D002E002AF2
:1005A00000280049004A001C0018000C001200132B
:1005B000002F0030004C004D0000000B000D000E1D
:1005C000000F003300340031020000000000001171
:1005D000001000360037003800E100520000000033
:1005E0000000002C00E600E300E000500051004F46
:1005F00000000000000000010001000100010001F6
:1006000000010001000000000000000100010001E5
:1006100000010001000100010000000000000001D5
:1006200000010001000100010001000100000000C4
:1006300000000001000100010001000100010001B3
:1006400000000000000000010001000100010001A5
:100650000000000000000000000000010001000197
:100660000001000000000000000000000000000188
:100670000001000100010001000100010001000172
:100680000001000100010001000100010001000162
:100690000001000100010001000100010001000152
:1006A0000001000100010001000000010001000143
:1006B0000001000100010001000000000000000135
:1006C0000001000100010001000100010000000024
:1006D0000000000100010001000100010001000113
:1006E0000000000000000001000100010001000105
:1006F00000010001000000000000000100010001F5
:1007000000010001000100010000000000000001E4
:1007100000010001000100010001000100000000D3
:1007200000000001000100010001000100010001C2
:1007300000000000000000010001000100010001B4
:1007400000000000000000000000000100010001A6
:100750000001000000000000000000000000000197
:100760000001000100010001000100010001000181
:100770000001000100010001000100010001000171
:100780000001000100010001000100010001000161
:100790000001000100010001000000010001000152
:1007A0000001000100010001000000000000000144
:1007B0000001000100010001000100010000000033
:1007C0000000000100010001000100010001000122
:1007D00000000000000000290A002575002F0025F8
:1007E00075005D2800256400200025640020002598
:1007F000640020002564007C0025303258006D6FB5
:100800007573656B6579205B62746E7C78207920E6
:100810007620685D287265702F61636C293A205BD1
:10082000004C25640A00313A0964656C6179282A14
:1008300031306D73293A2025750A323A09696E7490
:10084000657276616C286D73293A2025750A333AF2
:10085000096D61785F73706565643A2025750A34A7
:100860003A0974696D655F746F5F6D61783A202530
:10087000750A353A09776865656C5F6D61785F73F5
:10088000706565643A2025750A363A0977686565AA
:100890006C5F74696D655F746F5F6D61783A202578
:1008A000750A006B65796D61705F636F6E6669676D
:1008B0002E7261773A20253032580A2E7377617094
:1008C0005F636F6E74726F6C5F636170736C6F6384
:1008D0006B3A2025750A2E636170736C6F636B5FD2
:1008E000746F5F636F6E74726F6C3A2025750A2E99
:1008F000737761705F6C63746C5F6C6775693A20C5
:1009000025750A2E737761705F7263746C5F72670E
:1009100075693A2025750A2E737761705F6C616C7A
:10092000745F6C6775693A2025750A2E737761705C
:100930005F72616C745F726775693A2025750A2E63
:100940006E6F5F6775693A2025750A2E737761703F
:100950005F67726176655F6573633A2025750A2E5D
:10096000737761705F6261636B736C6173685F6200
:1009700061636B73706163653A2025750A2E6E6B37
:10098000726F3A2025750A0064656275675F636F50
:100990006E6669672E7261773A20253032580A2ECA
:1009A000656E61626C653A2025750A2E6D61747200
:1009B00069783A2025750A2E6B6579626F617264D9
:1009C0003A2025750A2E6D6F7573653A2025750AD4
:1009D000006565636F6E6669673A0A64656661758E
:1009E0006C745F6C617965723A2025750A000A099A
:1009F0002D204D61676963202D0A443A09446562E0
:100A00007567204D65737361676520546F67676C08
:100A1000650A583A094D61747269782044656275B7
:100A200067204D6F646520546F67676C65202D20CB
:100A300053686F77206B6579707265737365732087
:100A4000696E206D617472697820677269640A4BFF
:100A50003A094B6579626F6172642044656275671B
:100A600020546F67676C65202D2053686F77206B6B
:100A700065797072657373207265706F72740A4D58
:100A80003A094465627567204D6F75736520546F30
:100A900067676C650A563A0956657273696F6E0A24
:100AA000533A095374617475730A433A0941637484
:100AB000697661746520436F6E736F6C65204D6F4E
:100AC00064650A46312D4631303A095377697463BB
:100AD0006820746F204C6179657220302D39202890
:100AE000463130203D204C30290A302D393A095307
:100AF000776974636820746F204C61796572203067
:100B00002D390A47524156453A095377697463684B
:100B100020746F204C6179657220302028616C74DC
:100B200065726E617465290A423A094A756D7020D2
:100B3000746F20426F6F746C6F616465720A455305
:100B4000433A094A756D7020746F20426F6F746C60
:100B50006F616465722028616C7465726E61746582
:100B6000290A453A095072696E7420454550524F22
:100B70004D2053657474696E67730A425350414344
:100B8000453A09436C65617220454550524F4D0A04
:100B9000000A092D20436F6E736F6C65202D0A4586
:100BA00053432F713A09717569740A6D3A096D6F73
:100BB0007573656B65790A000A092D205665727395
:100BC000696F6E202D0A5649443A203078464545D3
:100BD0004428254D414E55464143545552455225D2
:100BE00029205049443A203078303030302854752C
:100BF0007556656953706C69746C65667429205606
:100C000045523A203078303030310A4255494C4410
:100C10003A20202841756720313520323032312981
:100C20000A4F5054494F4E533A204C554641204D9F
:100C30004F5553454B45592045585452414B455902
:100C400020434F4E534F4C4520434F4D4D414E4452
:100C5000204C544F20343039360A4743433A203130
:100C6000312E322E30204156522D4C4942433A20EB
:100C7000322E302E30204156525F415243483A20A6
:100C8000617672350A000A092D20537461747573F8
:100C9000202D0A686F73745F6B6579626F6172648F
:100CA0005F6C65647328293A20253032580A6B65D9
:100CB00079626F6172645F70726F746F636F6C3AA8
:100CC00020253032580A6B6579626F6172645F6902
:100CD000646C653A20253032580A74696D65725F1C
:100CE00072656164333228293A202530386C580AFD
:100CF000003F000A6D6F7573653A206F66660A00E3
:100D00000A6D6F7573653A206F6E0A000A6B65791C
:100D1000626F6172643A206F66660A000A6B6579D9
:100D2000626F6172643A206F6E0A000A6D617472BC
:100D300069783A206F66660A000A6D617472697894
:100D40003A206F6E0A000A64656275673A206F6622
:100D5000660A000A64656275673A206F6E0A000AC7
:100D60000A4A756D70696E6720746F20626F6F74C8
:100D70006C6F616465722E2E2E2000433E2000436E
:100D80006C656172696E6720454550524F4D0A008F
:100D90004661696C656420746F206578656375745D
:100DA000652025730A0011241FBECFEFDAE0DEBFF5
:100DB000CDBF04B603FE27C08091700390917103EC
:100DC000A0917203B09173038730904BA740B04B52
:100DD000D1F410927003109271031092720310926A
:100DE000730314BE84B7877F84BF0FB6F894A895A9
:100DF00080916000886180936000109260000FBE57
:100E0000E0E0F8E3099523E0A6E3B2E001C01D921B
:100E1000A037B207E1F712E0A0E0B1E0E0E1FCE5C5
:100E200002C005900D92A633B107D9F70E9466243F
:100E30000C948C2D0C940000FF93EF93E0913602FC
:100E4000F0913702309709F00995EF91FF910895DD
:100E5000FC018591803011F0EFDFFBCF0895FF2773
:100E6000E0E230E247FF0CC0419597FF09C0EDE298
:100E70006095709580959095611D711D811D911DE6
:100E800027FF02C0219530E350E2AA27660F771FA3
:100E9000881F991FAA1FA41710F0A41B63955A95C9
:100EA000A9F7AA3008F0A95FA05DAF93F39561158B
:100EB00071058105910541F7ED3211F4EF93F3953A
:100EC000F21718F43F93F395FBCF8F91B5DFFA95A6
:100ED000E1F70895E991F9918591803021F085320B
:100EE00019F0AADFF9CF089520E0E8945591553222
:100EF000C1F3503311F4689455915A3348F4505368
:100F000090F3220F022E220F220F200D250FF4CF77
:100F10000EF4219589919991533619F3533729F19C
:100F2000533559F1BC0188279927E8945C3621F4A0
:100F30008991999168945591543639F446EF7EF031
:100F400077FF0DC08FEF9FEF0AC055374AE039F0A9
:100F5000583540E121F0523642E009F00895FF9300
:100F6000EF937DDFEF91FF91B7CFFF93EF93FC01FC
:100F700081918030B9F360DFFBCFFF93EF9368DF9F
:100F8000F1CFDF93CF93CDB7DEB72596A3DFCF9117
:100F9000DF910895829594E0899F900111242C7C23
:100FA000869586958373282B30E0C901880F991F99
:100FB0008A7A359527952575822B08959091590346
:100FC00092FF06C0282F28712830F9F4877F8460AB
:100FD00093FF06C0282F28712831F1F4877E8461A1
:100FE00020915A0320FF06C0382F38713830D9F4C9
:100FF000877F816021FF06C0282F28712831D1F416
:10100000877E816194FD877E0895282F2471243086
:10101000F9F68B7F8860DCCF282F2471243101F70B
:101020008B7E8861DDCF382F3171313019F78E7F9B
:101030008860E0CF282F2171213121F78E7E8861D1
:10104000E1CFCF93DF93EC01803E910509F460C0BE
:1010500050F58133910509F4A6C090F489329105C9
:1010600009F49AC08A9709F4A5C0C130D10509F4E2
:1010700062C0CE010497813A910508F055C05BC06B
:1010800089339105F1F182389105D9F1C59709F4B9
:101090007CC0C83AD10508F094C0C53AD10528F300
:1010A000A497D06448C0843E910509F453C068F405
:1010B000823E9105E1F1833E910509F440C0CE01E5
:1010C000805E9109089780F536C0863E910509F447
:1010D0004CC0873E910509F44DC0811523E5920768
:1010E00008F09AC0811532E5930708F000C18F3FE0
:1010F000910511F008F074C0803F910550F2D06561
:101100001AC0809159038370B1F0C0EED0E013C0D3
:101110008091590380FD15C190915A0390FF0BC037
:10112000C3EED0E084FF07C0D0E0C0E004C08091EF
:10113000590382FDF5CFCE01DF91CF9108958091C3
:10114000590382FD01C190915A0390FDDECF84FFC7
:10115000F2CFEACF80915A0381FFEDCF80915903FE
:10116000C7EED0E084FDE0CFE6CF8091590383FD48
:10117000F7CFE1CF8091590383FDE9C090915A03E5
:1011800091FFE5CFC4EED0E0D6CF8091590385FF23
:10119000D2CFC9E2D0E0CFCF8091590385FFCBCF2A
:1011A000C5E3D0E0C8CF8091590386FFC4CFCAE21F
:1011B000D0E0C1CF8091590386FFBDCFC1E3D0E01D
:1011C000BACFCF3BD10508F07ACFC85AD0E0CC0FC8
:1011D000DD1FC85FDD4F0990D881C02DD464ABCF2F
:1011E000C11581E5D80798F4C11520E5D20708F0AC
:1011F00061C0C11530E2D30708F49DCFCE019054F1
:101200008115904108F090CFDF70D06A94CFDC2F29
:10121000CC27C16FD06A8FCF811539E59307A0F530
:10122000C11588E5D80708F07AC0C11525E5D207B1
:10123000C8F4C11534E5D30708F06CC09E012370D3
:10124000332781E090E002C0880F991F2A95E2F7CA
:10125000C695C69520E2C29FE0011124C82BD92B68
:10126000DA6869CFCE0195558F3F910511F008F0EE
:101270005BCF8C2F0E94DE07C82FD0E0DC2FCC275D
:10128000CC27DF71D06257CF81153AE5930708F478
:101290004BC090568115904208F046CF8D2F8F712C
:1012A0000E94DE0790E0982F882788279F718C2B5B
:1012B000EC01E8CF9E0174E0369527957A95E1F729
:1012C00023708C2F86958695837030E2839FC001B2
:1012D0001124922BC37021E030E002C0220F331F93
:1012E000CA95E2F7822B932BEC01DC6824CF9C019A
:1012F0002370332781E090E002C0880F991F2A9560
:10130000E2F7C695C69520E2C29FE0011124C82BE2
:10131000D92BEBCFDC2FCC27C46FD06A0CCFDC2FBE
:10132000CC27C06FD06A07CF8F700E94DE0734E0F1
:10133000D695C7953A95E1F7CF709C2FEC01D0690F
:10134000FACEC9E3D0E0F7CEC2EED0E0F4CEC6EEDE
:10135000D0E0F1CEF894E82FE295EF70F0E041A1F3
:101360008F7021E030E0B90102C0660F771F8A95C7
:10137000E2F7CB01962F9095942391A392A1892B0C
:1013800082A3789408958091FD0280FF12C060913D
:101390000D0185E0689FB0011124759567957595DD
:1013A000679560387105A8F561157105A1F1862F63
:1013B000089581FF09C060910D0185E0689FB0012B
:1013C000112475956795EDCF60910D0182FD0AC0DE
:1013D0002091FC022223D1F090910E0160910D0129
:1013E000291728F085E0689FB0011124DACF269FE5
:1013F0009001112485E0829FA001839F500D11244C
:10140000692F70E0CA010E94132DCBCF65E070E018
:10141000CECF8FE7089581E008958091FD0280FF8F
:101420000CC060910F0170E0759567957595679593
:101430006115710549F1862F089581FF06C06091FD
:101440000F0170E075956795F3CF60910F0182FDF4
:101450000BC09091FB029923A1F060911001809143
:101460000F01961738F0682F70E06038710500F3AF
:101470008FE70895899FC001112470E00E94132D09
:10148000F4CF61E070E0D7CF81E00895E0E1E80FAC
:10149000E031E0F5F0E0E257F24D0C94272D0E9488
:1014A000C30981958093F80208950E94C309FACF79
:1014B0000E94C30981958093F70208950E94C30991
:1014C000FACF0E940D0A8093F90208950E940D0A36
:1014D0008195F9CF0E940D0A81958093FA020895B3
:1014E0000E940D0AFACF845F990B21E030E001C021
:1014F000220F8A95EAF78091F602822B8093F602FA
:1015000008958091FD0281608093FD02089580918D
:10151000FD028260F9CF8091FD028460F5CF409199
:10152000F702803F59F48091F80287FF0DC01092B6
:10153000F80241110BC01092FC0208C0813F81F4F7
:101540008091F80218169CF3442381F08091F902EF
:101550009091FA02892B09F05AC01092FB0208956B
:10156000823F49F447FFF0CF1092F7028091F802D2
:101570008111ECCFE0CF833F19F41416ACF3E4CF24
:101580009091F902893F29F41916F4F61092F902A4
:10159000DBCF8A3F19F497FFD7CFF8CF9091FA02AB
:1015A0008B3F29F497FFD0CF1092FA02CDCF8C3F1A
:1015B00019F41916CCF3C8CF9CE0980F953090F42D
:1015C000845F990B21E030E0B90102C0660F771FFC
:1015D0008A95E2F7CB0180959091F602892380935A
:1015E000F602B2CF8D3F31F48091FD028E7F809361
:1015F000FD02AACF8E3F21F48091FD028D7FF7CFAF
:101600008F3F09F0A1CF8091FD028B7FF0CF08952D
:101610002091ED023091EE022817390771F0909376
:10162000EE028093ED02E091EF02F091F00230972C
:1016300021F00680F781E02D099408952091EB02B6
:101640003091EC022817390771F09093EC028093E7
:10165000EB02E091EF02F091F002309721F000846C
:10166000F185E02D099408958091B4029091B30220
:10167000981301C008958F5F8770FACFE82F2AE092
:10168000929FE00D11248E2F877041E001C0440F1E
:101690008A95EAF7E695E695E69583E0E89FF001FE
:1016A0001124E358FD4F30E020E070E05191DF015C
:1016B0001197CB01022E02C0969587950A94E2F706
:1016C000817081958527842385278C932F5F3F4FD9
:1016D0002330310559F70895E82F2AE0929FE00D55
:1016E00011249E2F9770E695E695E69583E0E89F96
:1016F000F0011124E358FD4F50E040E080E02191DB
:1017000030E0092E02C0369527950A94E2F7217041
:101710003327042E01C0220F0A94EAF7822B4F5F71
:101720005F4F4330510559F70895EAE3F2E0919194
:10173000891303C0DF0111971C9292E0E034F9078E
:10174000B1F708958091AE0281111092AE02089512
:101750009C01FC0132968FEF90E04191461751F0C9
:101760008F3F19F4411101C0892F9F5F9630A9F76F
:101770008F3F09F40895280F311D87FD3A95F9012F
:101780006283089580917B020895FC01CB01209132
:101790005202309153022617370790F0009729F430
:1017A0002091E8002E772093E80040E0009751F464
:1017B000411108C08091E80082FF31C080E00895A7
:1017C000C901F3CF209119032223A9F12530A9F1F2
:1017D0002091E80023FD2DC02091E80022FDEACFF2
:1017E0002091E80020FFE2CF3091F3002091F20039
:1017F000009719F02830310558F041E028303105C4
:1018000009F040E02091E8002E772093E800CECF49
:1018100041914093F10001972F5F3F4FE9CF8091B5
:101820001903882341F0853041F08091E80083FF5F
:10183000C1CF81E0089582E0089583E0089580910A
:101840004C0287FF13C08091E80082FF06C08091A0
:10185000E8008B778093E80004C080911903811120
:10186000F2CF0895809119038823D9F38091E8007D
:1018700080FFF8CF8091E8008E77ECCF2091E400D4
:101880003091E50095E6A9012091EC00822F81704E
:1018900020FF06C08091E80080FF06C080E0089528
:1018A0002091E80022FD1AC080911903882389F055
:1018B000853089F08091EB0085FD0FC02091E40018
:1018C0003091E50042175307F9F29150E1F684E0B8
:1018D000089582E0089583E0089581E00895E8ED99
:1018E000F0E080818E7F80831092E2001092DA0017
:1018F0001092E100A0EEB0E08C9181608C93808129
:101900008F77808319BCA7EDB0E08C918E7F8C938C
:1019100080818F7E808310924B020895EF92FF9218
:101920000F931F93CF937C018B010E943E0CC82F15
:10193000811117C08091E80085FD0BC08091E800FF
:101940008E778093E8000E943E0C882399F3C82F7D
:1019500008C0F70181917F018093F10001501109C6
:1019600049F78C2FCF911F910F91FF90EF90089521
:10197000FC01AC01445F5F4F8FEF91E3219182271F
:1019800028E030E087FF09C0880F892721503109FE
:10199000C9F7E417F50791F70895880FF7CF982F47
:1019A0009093E900242F762F50E0891731F0709141
:1019B000EC002091ED005091F00021FD06C09F5FEA
:1019C000973071F78093E90008953091EB003E7FE6
:1019D0003093EB003091ED003D7F3093ED0030917E
:1019E000EB0031603093EB007093EC002093ED003E
:1019F0005093F0002091EE0027FDE1CF0895CF92A3
:101A0000DF92EF92FF920F931F93CF93DF93C8ED76
:101A1000D0E088818F7E8883E7EDF0E0808181606F
:101A2000808384E082BF81E080934B0288818E7F37
:101A3000888302EE10E0F80110821092DA0081EE45
:101A4000C82ED12CF601108288818F7788838881F7
:101A50008068888388818F7D888319BC10921903E0
:101A600010924A0210926D021092490290EEE92EF5
:101A7000F12CF70180818B7F80838881816088834E
:101A800042E060E080E00E94CF0CF60180818E7F12
:101A90008083F80180818160808380818860808379
:101AA000F70180818E7F8083888180618883DF91C8
:101AB000CF911F910F91FF90EF90DF90CF900895FD
:101AC0008FBF0895CF93DF9300D000D0CDB7DEB79E
:101AD0008FB7F894209104033091050340910603D9
:101AE0005091070329833A834B835C830E94600DE6
:101AF00069817A818B819C810F900F900F900F905C
:101B0000DF91CF91089580911A03811110C08091C7
:101B1000D80080618093D8008AE18A95F1F700C0EF
:101B20008091D90080FF0AC081E080931A0381E090
:101B300090911A03913009F080E0089582E080933B
:101B40001A030E946F0C10921903F1CF0E94830DAB
:101B5000882351F0E091EF02F091F002309721F0EC
:101B60000190F081E02D099480E0089581E0809358
:101B7000E00080E28093D8001092C9008FE19EE4DB
:101B80000197F1F700C0000087E090EBDC01809343
:101B9000700390937103A0937203B093730388E171
:101BA0009CE00FB6F894A895809360000FBE9093C8
:101BB0006000FFCFCF93DF93D82FC92F81E08093B0
:101BC000E9008FEF9091E800815095FD06C095EDFA
:101BD0009A95F1F700008111F5CF8091E80085FF1B
:101BE00016C050E040E068E070E08D2F9C2F0E940E
:101BF0008E0C8091E8008E778093E80088E0ED2FCE
:101C0000FC2FA3E7B2E001900D928A95E1F7DF91F6
:101C1000CF91089524E02093E9002FEF3091E80060
:101C2000215035FD06C035ED3A95F1F70000211140
:101C3000F5CF2091E80025FF0BC050E040E066E0C2
:101C400070E00E948E0C8091E8008E778093E8000F
:101C5000089590911903943029F580937002609350
:101C60007102709372029093E9008FEF9091E800F7
:101C7000815095FD06C095ED9A95F1F70000811110
:101C8000F5CF8091E80085FF0DC050E040E063E0B3
:101C900070E080E792E00E948E0C8091E8008E77E1
:101CA0008093E8000895BC0183E00C94290EBC01E8
:101CB00084E00C94290ECF93DF93D82F8FB7F8943C
:101CC00010926F020E94600D80911903843009F018
:101CD00049C08091E900C091EC00C795CC27C79519
:101CE0008F70C82B85E08093E9008091EB0080FF26
:101CF00036C08091EE0087FF32C080916E0288234B
:101D000021F08091E80085FF2AC010926E0286E0E3
:101D10009091E80095FF16C0D093F1008091E80003
:101D200085FD29C08091E80080FFFCCF8091E8000C
:101D30008E778093E800CF70C093E90080E0DF9158
:101D4000CF91089590911903943049F49091EB004C
:101D500095FD05C0815041F481E080936E02CF7003
:101D6000C093E9008FEFEBCFEFE9FFE03197F1F798
:101D700000C00000CDCF8FB7F89491E090936F0230
:101D80000E94600DD8CF0F931F939AE08902F00153
:101D90001124EE5EFE4F20853185232BA1F0809328
:101DA0005E0360911501709116012091140130E0DD
:101DB000AB01425A5C4F04E610E082E30E94B92B6B
:101DC0001F910F91089580E090E0FACF9F92AF921B
:101DD000BF92CF92DF92EF92FF920F931F93CF9318
:101DE000DF93E62EB72EA42E952ED22FF32E680168
:101DF00081113FC0C0E08C2FDF91CF911F910F91D7
:101E0000FF90EF90DF90CF90BF90AF909F9008959C
:101E1000009F9001019F300D300D112490E080E073
:101E200045E34A95F1F70000019628173907C1F7F5
:101E3000F8946A2D792D8E2D9B2DF6010995C82FCA
:101E400078948111D8CF0F5F1F4F0B30110501F728
:101E50008091180380FFCECFFF92DF9380E99DE051
:101E60009F938F930E94C1070F900F900F900F9038
:101E7000C2CF01E010E0DCCF809110011F928F9360
:101E800080910F011F928F9380910E011F928F936B
:101E900080910D011F928F9380910C011F928F935F
:101EA00080910B011F928F9386E298E09F938F930E
:101EB0000E94C1078DB79EB70E960FB6F8949EBFCD
:101EC0000FBE8DBF08958F929F92AF92BF92CF9217
:101ED000DF92EF92FF920F931F93CF93DF93CDB7D3
:101EE000DEB728970FB6F894DEBF0FBECDBF809047
:101EF000000390900103A0900203B09003038FB7FA
:101F0000F894C0900403D0900503E0900603F0908D
:101F100007030E94600DC818D908EA08FB0884E688
:101F2000C816D104E104F10408F46EC00E94830DC8
:101F3000882309F443C00E94620D462F572FBC012D
:101F40004E5F5F4F6F4F7F4F49835A836B837C8314
:101F500080913201E82EF12C853018F084E0E82ED3
:101F6000F12CC0903301D0903401D601A25ABC4F5D
:101F70005D01A701BE016F5F7F4FCD010E94832DE0
:101F800004E610E09701A5016C2D82E30E94B92BB5
:101F900097FF2BC080E028960FB6F894DEBF0FBEE7
:101FA000CDBFDF91CF911F910F91FF90EF90DF9008
:101FB000CF90BF90AF909F908F9008950E94620D38
:101FC0006D837E838F83988740911E0350911F03FA
:101FD00060912003709121038D819E81AF81B8852E
:101FE000480F591F6A1F7B1FABCF83E00E94C30EAF
:101FF00097FDD0CF0E94620D6093000370930103A0
:10200000809302039093030381E0C5CF4F925F92C8
:102010006F927F928F929F92AF92BF92CF92DF92F8
:10202000EF92FF920F931F93CF93DF93CDB7DEB75D
:102030002D970FB6F894DEBF0FBECDBF7B0181E0B8
:102040000E94C30E97FDADC080912101C82ED12CF6
:10205000882319F0CC24C394D12C60912201709173
:102060002301AB01425A5C4F04E610E0960182E383
:102070000E94EA2B97FD95C0609122017091230187
:10208000625A7C4FA601CE010D960E94832D40908E
:1020900014035090150360901603709017038FB7C8
:1020A000F8948090040390900503A0900603B090EC
:1020B00007030E94600D84189508A608B70884E6F7
:1020C00088169104A104B10440F480E693E00E94D4
:1020D000B80C9D85891709F471C082E00E94C30E77
:1020E00097FF20C080E09CE0E8E0F3E0D70101909A
:1020F0000D929A95E1F72D960FB6F894DEBF0FBEBC
:10210000CDBFDF91CF911F910F91FF90EF90DF90A6
:10211000CF90BF90AF909F908F907F906F905F9087
:102120004F90089580912B01C82ED12C8D3018F03E
:102130008CE0C82ED12C60912C0170912D01AB0147
:10214000425A5C4F04E610E0960182E30E94EA2BBB
:1021500097FDC8CF60912C0170912D01625A7C4F80
:10216000A601CE0101960E94832D80E693E00E9495
:10217000B80C9D858913B6CF0E94620D609314033D
:102180007093150380931603909317038CE0FE0160
:102190003196A8E0B3E001900D928A95E1F781E0D5
:1021A000A2CF80E09CE0E0E6F3E0DE011196019032
:1021B0000D929A95E1F78111E9CF95CF81E0F2CFA9
:1021C000EF92FF920F931F93CF93DF938091AD0215
:1021D0009091B202892B9091AA02892B80933802A8
:1021E0009091AE02992391F0892B8093380220E0E0
:1021F0008AE392E0FC013081019631112F5F32E0D9
:1022000080349307B9F721110E94A20BE091EF02ED
:10221000F091F0023097C9F10280F381E02D88E35C
:1022200092E009958091180382FF2FC080FF04C0BF
:1022300087E094E00E942807C8E3D2E080E4E82E1B
:1022400082E0F82E01E014E08091180380FF0BC0BB
:1022500088811F928F931F930F930E94C1070F9045
:102260000F900F900F902196EC16FD0669F7809164
:10227000180380FF0AC08FEF93E0DF91CF911F9189
:102280000F91FF90EF900C942807DF91CF911F9151
:102290000F91FF90EF900895882339F09091AD024F
:1022A000892B8093AD020C94E0100895882341F0AF
:1022B00080959091AD0289238093AD020C94E0103B
:1022C0000895893209F46AC010F5833109F47AC09F
:1022D00040F4873009F4D2C08B3051F18DE892E0A0
:1022E000E1C0843109F45AC092EE980F9A30B0F7E9
:1022F0008D5180934502843009F06BC08EE091E0EF
:10230000909344028093430286E891E086C0803532
:1023100009F4CBC030F4883359F08F34F9F68AE0F1
:10232000C5C0813509F4DAC08235C1F681E0BEC08E
:1023300082EB92E00E9428070E943C0F1F9281E0EE
:102340008F931F9285E08F938BEA91E09F938F93F9
:102350000E94C1070F900F900F900F900F900F9059
:1023600020914502222309F4C2C08091410290913C
:102370004202009711F480E691E09F938F931F92A1
:102380002F938BE792E09F938F930E94C1070F904A
:102390000F900F900F900F900F9008958FEA92E09A
:1023A0000E94280780914502882309F4A4C0109256
:1023B000450210924402109243021092420210927F
:1023C0004102CECF81EA92E00E9428070E943C0F92
:1023D000C7CF853068F48230B1F18330E9F18130C4
:1023E000A1F0109245028EE992E00E94280719C0E0
:1023F0008530D9F18630A9F780E191E090934402CD
:102400008093430288EA91E008C08BE091E09093CA
:1024100044028093430284E691E0909342028093C9
:10242000410280914502882309F49ACF1F928F932D
:102430008AE992E09F938F930E94C1070F900F90BB
:102440000F900F908DCF8CE091E090934402809399
:1024500043028DE691E0E1CF8DE091E0909344025C
:102460008093430289E791E0D8CF8FE091E0909389
:1024700044028093430285E991E0CFCF8EE18093BF
:102480000B0182E380930C018AE080930D0184E1CB
:1024900080930E0188E080930F0188E28093100101
:1024A00080E992E00E9428075BCF86EFE09143022B
:1024B000F09144023097C1F02081082E000C990B56
:1024C000820F911D8F3F910509F054F497FD0AC0CA
:1024D00080831F928F9387E892E0ACCF8FEFE6CF97
:1024E0008FEFF6CF80E0F4CF84E892E0DBCF87E790
:1024F00092E00C94280708950F931F93CF93DF93D6
:10250000C42FD0E0CC0FDD1F24E1629FC00DD11D90
:10251000112430EF839FC00DD11D1124CE01879669
:102520000E94342D082F10E0102F0027CE0188962E
:102530000E94342D9801282BC901DF91CF911F9162
:102540000F910895462F672F833030F47C3020F4AC
:102550004A3010F40C947C1290E080E00895DF92F1
:10256000EF92FF920F931F93CF93DF937C01009123
:10257000B0028091AF02082BC7E0D0E010E0DC2E63
:10258000C8010C2E02C0959587950A94E2F780FD4C
:102590000CC02197A0F7D12C8D2DDF91CF911F91E9
:1025A0000F91FF90EF90DF900895B7018C2F0E945C
:1025B000A2120E942108019761F3EECF0F931F939F
:1025C000CF93FC01828100811181882389F06623E9
:1025D00079F0C8010E94AF12C82F682FC8010E946D
:1025E0003E0BB8018C2FCF911F910F910C94A2122A
:1025F000C8010E946C0BC82FF4CFCF93DF93D82F64
:10260000C92F0E94AF126D2F7C2F0E94A212DF9162
:10261000CF910C9421080E94FD12282F892F8F70D2
:10262000392F32953F70903C80F43A30B0F434301A
:1026300020F4323090F480E008953630E1F781E004
:10264000283E88F0213FB9F70EC03C3011F03F30F2
:1026500091F7869586958695089581E0203F39F01B
:1026600018F4283E40F70895243F29F7FCCF089539
:10267000CF9384E090E00E94342DC82F82E290E056
:102680000E94342D982F8C2FCF9108954F925F92F6
:102690006F927F928F929F92AF92BF92CF92DF9272
:1026A000EF92FF920F931F93CF93DF9310E000E020
:1026B00030EF632E712CE801CC0FDD1F58011CC0D8
:1026C000F60185909490692DC7010E94422D682DD6
:1026D000C70101960E94422D22E0C20ED11C32E0B9
:1026E000E30EF11C4E145F0459F764968AE0A80EBD
:1026F000B11CC615D70581F0C501880F991F9C0133
:10270000295F3A4F69017E0137E2E30EF11C2E0189
:102710008BE3480E511CD4CF3E0120EF620E711C9A
:1027200008581F4F083631E0130729F6DF91CF9183
:102730001F910F91FF90EF90DF90CF90BF90AF90DF
:102740009F908F907F906F905F904F900895CF9360
:10275000DF93C7EFD2E060E0CE010E94422D2196C8
:10276000C11584E0D807B9F7DF91CF910895CF93D1
:10277000DF93D82FC0915A03C2FB882780F98D17A9
:10278000F9F0D0FBC2F9C0935A036091590384E079
:1027900090E00E94422D6C2F82E290E00E94422D38
:1027A0008091180380FF0CC01F92DF9389E194E0B1
:1027B0009F938F930E94C1070F900F900F900F90DF
:1027C000DF91CF9108956AEE7EEF90E080E00E9465
:1027D000602D60E082E090E00E94422D60E083E0A6
:1027E00090E00E94422D1092AF0260E084E090E001
:1027F0000E94422D60E082E290E00E94422D60E063
:1028000085E090E00E94422D60E086E090E00E942A
:10281000422D6FEF87E090E00E94422D40E050E0B3
:10282000BA0188E090E00E94542D60E08DE090E0D5
:102830000E94422D40E050E0BA0188E190E00E9401
:10284000542D60E087E190E00E94422D40E050E08E
:10285000BA018CE190E00E94542D70E060E080E2CB
:1028600090E00E94602D40E050E0BA0188E190E0E5
:102870000E94542D40E050E0BA018FE090E00E94A9
:10288000542D40E050E0BA0183E190E00C94542DC7
:102890001F921FB61F9211248F939F93AF93BF93E4
:1028A00080917C02811113C08091040390910503F3
:1028B000A0910603B09107034196A11DB11D80931D
:1028C000040390930503A0930603B0930703BF91FD
:1028D000AF919F918F911F901FBE1F901895CF921F
:1028E000DF92EF92FF928FB7F894C0900403D090DC
:1028F0000503E0900603F09007030E94600DC601F7
:10290000FF90EF90DF90CF9008958091180383FFA0
:102910007EC08EEF97E00E9428078091F6021F92FA
:102920008F9389EF97E09F938F930E94C10787EF62
:1029300097E00E9428078091F702282F082E000CAC
:10294000330B3F938F9384EF97E09F938F930E9475
:10295000C10782EF97E00E9428078091F802282F94
:10296000082E000C330B3F938F938FEE97E09F93CD
:102970008F930E94C1078DEE97E00E9428078091F7
:10298000F902282F082E000C330B3F938F938AEE09
:1029900097E09F938F930E94C10788EE97E00E9473
:1029A00028078091FA02282F082E000C330B3F9342
:1029B0008F9385EE97E09F938F930E94C10782EEDD
:1029C00097E00E9428078091FC021F928F938FED61
:1029D00097E09F938F930E94C1078DED97E00E942F
:1029E00028078091FD021F928F938AED97E09F93B5
:1029F0008F930E94C10787ED97E00E9428078DB74B
:102A00009EB74C960FB6F8949EBF0FBE8DBF0E9426
:102A10006F142091F7023091F802232B21F080935C
:102A2000F3029093F4022091F9023091FA02232BE1
:102A300021F08093F1029093F202E091EF02F09185
:102A4000F002309749F082E08093F5020480F5812E
:102A5000E02D85EF92E009940895882399F19CEF89
:102A6000980F913A20F40E94950B0C94E01090E29C
:102A7000980F983088F4877021E030E0A90102C0F7
:102A8000440F551F8A95E2F7CA0180959091AD02D7
:102A900089238093AD02E9CF9BE5980F933020F412
:102AA00090E080E00C94080B98E5980F973120F4A3
:102AB00090E080E00C941E0B803F20F00E948F0A73
:102AC0000C948514089590E080E00E94080B90E03B
:102AD00080E00E941E0B1092B2021092AA020E9485
:102AE000E01086E0E5EFF2E0DF011D928A95E9F75C
:102AF0001092FC021092FB021092FD020C948514BD
:102B00001092AD02EAE3F2E086E0DF011D928A95C1
:102B1000E9F70C9463151F93CF93DF93CDB7DEB71E
:102B2000AA970FB6F894DEBF0FBECDBF8CE492E03B
:102B3000FC0101962091F100208322E08435920768
:102B4000B9F780914D02893009F456C0C8F482303B
:102B500009F4B2C0833009F481C0813071F18091F1
:102B6000E80083FF87C280914C0290914D029A3019
:102B700008F080C2E92FF0E0E256F24D0C94272DC8
:102B80008A3009F488C08B3051F780914C02813231
:102B900031F78091500290915102892B01F7809179
:102BA000E800877F8093E8000E941F0C80914E020E
:102BB000809311010E948015D2CF80914C02813AFE
:102BC00071F68091E800877F8093E8008091500241
:102BD00090915102892B61F468E083E792E070E004
:102BE0000E94C50B8091E8008B778093E800B7CFF7
:102BF00060E090E080E0F3CF80914C02813209F0F8
:102C0000AECF80915002909151028D7F892B09F0B7
:102C1000A6CF8091E800877F8093E8008091E8004C
:102C200082FF17C09091F3008091F200029729F47F
:102C30008091F1008B7F813021F48091F1008093AD
:102C40007B028091E8008B778093E8000E941F0C44
:102C500086CF809119038111E1CF81CF80914C0201
:102C6000813A09F07CCF8091500290915102892BDA
:102C700009F075CF8091E800877F8093E80080910C
:102C8000E80080FFFCCF809111018093F1008091DA
:102C9000E8008E77D9CF80914C02813209F05FCF66
:102CA0008091E800877F8093E8000E941F0C80914C
:102CB0004F028093FE0253CF80914C02813A09F07B
:102CC0004ECF8091E800877F8093E8008091E800F4
:102CD00080FFFCCF8091FE02D8CF803899F08238F7
:102CE00009F0C8C1809150028F70873008F0C2C1CE
:102CF0008093E9008091EB0085FB882780F9109292
:102D0000E90006C08091490290916D0291118260A4
:102D10009091E800977F9093E8008093F1001092E3
:102D2000F1008091E8008E77A1C1882309F48FC15A
:102D3000823009F09FC180914E02811192C1809131
:102D400050028F702FEF280F263008F093C1809328
:102D5000E9002091EB0020FF84C1933031F4809191
:102D6000EB0080628093EB007CC19091EB0090615E
:102D70009093EB0021E030E001C0220F8A95EAF742
:102D80002093EA001092EA008091EB008860EACF7D
:102D9000811170C110914E021F778091E3008078FD
:102DA000812B8093E3008091E800877F8093E80087
:102DB0000E941F0C8091E80080FFFCCF8091E3000F
:102DC00080688093E30082E0111183E0809319030F
:102DD00051C18058823008F04DC140914E0250914F
:102DE0004F024C3D83E0580799F583E08A838AE2DD
:102DF00089834FB7F894DE01139620E03EE051E25C
:102E0000E32FF0E050935700849120FF03C0829598
:102E10008F703F5F8F708A30C8F0895C90E08D932F
:102E20009D932F5F243161F74FBF8091E800877F2A
:102E30008093E8006AE270E0CE0101960E94C50B23
:102E40008091E8008B778093E80014C1805DE6CF25
:102E50008091500290915102252F33272330310564
:102E600009F44AC078F52130310509F479C08BE7BF
:102E700090E0E2ECF2E02230310509F0FBC0209155
:102E8000E800277F2093E8002091520230915302FE
:102E90008217930708F49C0140E02115310509F0E1
:102EA00064C0411162C08091E80082FDC9CF809169
:102EB0001903882329F2853019F28091E80083FFF5
:102EC000F2CFBECF2132310509F43BC022323105A9
:102ED00009F0D0C08430910508F0CCC0FC01EE0FA1
:102EE000FF1FEA50FE4F0190F081E02D8E509E4F63
:102EF000DC018C9190E011C0CA019927413089F022
:102F000082309105B1F0892B09F0B4C0E1E9F3E01A
:102F1000E4918E2F90E0E1E9F3E0009709F4AAC074
:102F2000AECFE1E7F3E0E4918E2F90E0E1E7F3E04C
:102F3000F4CFEFE4F3E0E4918E2F90E0EFE4F3E0E0
:102F4000ECCF8430910508F095C0880F991FFC01E3
:102F5000E250FE4F0190F081E02D89E090E08FCFAC
:102F600082E190E0EDE3F3E08ACF809119038823BA
:102F700009F466CF853009F463CF8091E80083FDC2
:102F80005FCF8091E80082FD8ECF8091E80080FFC6
:102F900084CF9091F3008091F2002115310519F052
:102FA0008830910550F041E0089709F040E08091A9
:102FB000E8008E778093E80070CF44914093F10051
:102FC0003196215031090196E8CF803809F052C07E
:102FD0008091E800877F8093E80080914A02809387
:102FE000F1009FCE811146C010914E02123008F0C0
:102FF00041C08091E800877F8093E80010934A02E7
:103000000E941F0C112311F084E005C08091E300A1
:1030100087FDFACF81E08093190342E061EC81E003
:103020000E94CF0C42E261EC84E00E94CF0C42E2AD
:1030300061EC82E00E94CF0C42E260EC83E00E94EF
:10304000CF0C42E261EC85E00E94CF0C13C080916E
:103050004E02813079F481E0933009F080E0809372
:103060006D021092E9008091E800877F8093E8006C
:103070000E941F0C8091E80083FF0AC08091E80045
:10308000877F8093E8008091EB0080628093EB0063
:10309000AA960FB6F894DEBF0FBECDBFDF91CF91D9
:1030A0001F9108958093AF020C946315CF93C82F9E
:1030B0001F928F9381E298E09F938F930E94C107A4
:1030C00081E001C0880FCA95EAF70E9452180F905C
:1030D0000F900F900F90CF910C948015EF92FF926C
:1030E0000F931F93CF93DF938B3258F4853098F072
:1030F000EBEFE80FE63278F4F0E0E855F24D0C948F
:10310000272D833470F48A3308F027C1853359F0B2
:10311000883309F482C081EF9CE00E94280780E098
:1031200091C08334C1F780E00E9456186DC083E0DF
:1031300090E00E94342D1F928F9381ED99E09F9330
:103140008F930E94C10782E090E00E94342D83FBA0
:10315000992790F91F929F9382FB992790F91F92CC
:103160009F9381FB992790F91F929F93982F9170BD
:103170001F929F931F928F9388E899E09F938F935C
:103180000E94C1070E94381387FB222720F91F9253
:103190002F9386FB222720F91F922F9385FB22274E
:1031A00020F91F922F9384FB222720F91F922F933F
:1031B00083FB222720F91F922F9382FB222720F9DD
:1031C0001F922F9391FB222720F91F922F93292FD3
:1031D00021701F922F9381FB222720F91F922F939A
:1031E000282F21701F922F939F938F9383EA98E04B
:1031F0009F938F930E94C1078DB79EB788960FB695
:10320000F8949EBF0FBE8DBF81E01CC08FE79DE08C
:103210000E9428070E94E313F7CF8EEE99E00E94E8
:103220002807F2CF80911803807F8093180381E9EB
:103230009BE00E9428078BE79DE00E94280781E021
:103240008093FF02DF91CF911F910F91FF90EF903C
:1032500008958FE59DE00E9428070E9480159FEF4A
:1032600024E38CE0915020408040E1F700C0000052
:103270000E94B60D90911803892F8E7F90FF816078
:103280008093180380FF03C083E59DE0C8CF86E4E8
:103290009DE00E94280780911803817F8093180386
:1032A000B3CF90911803892F8D7F91FF8260809317
:1032B000180381FF08C089E39DE00E9428078091E0
:1032C00018038160EBCF8BE29DE0A9CF90911803AA
:1032D000892F8B7F92FF84608093180382FF03C045
:1032E0008CE19DE0EACF8CE09DE099CF90911803AE
:1032F000892F877F93FF88608093180383FF03C023
:1033000080E09DE0DACF83EF9CE089CF88EB9BE003
:1033100086CF0E94620DEB01182F092FE090FE026C
:10332000F09011010E94A60D0F931F93DF93CF938E
:103330001F92EF921F92FF921F928F9386E89CE05C
:103340009F938F930E94C1078DB79EB70C960FB6BF
:10335000F8949EBF0FBE8DBF57CF8953E5CE8D51D8
:10336000E3CECF93C82F8823B1F08CEF8C0F813A36
:1033700008F055C08091FF02813079F08230B9F1B8
:10338000811139C08091AD028232B9F58C2F0E9433
:103390006E18882391F1CF9108958091AD02823209
:1033A000A9F3C431C9F048F4CB3059F0C031C1F0B1
:1033B0008EE294E00E94280711C0C93269F0C83338
:1033C000B9F781E99BE00E94280780E394E00E941E
:1033D000280781E08170DDCF1092FF0280E0FACFF4
:1033E00082E08093FF0288E30E946111F2CF8C2F6C
:1033F000CF910C9461111092FF02EAE3F2E0819107
:10340000C81709F43FC022E0E034F207C1F76C2F7F
:1034100088E392E00E94A80BCF910C94E01080E228
:103420008C0F883068F4C77021E030E001C0220FB3
:10343000CA95EAF78091AD02822B8093AD02ECCF62
:103440008BE58C0F833038F42C2F2452330BC901B9
:10345000CF910C94080BE8E5EC0FE73150F4F0E065
:10346000EE0FFF1FE85FFD4F80819181CF910C949B
:103470001E0BC03F08F48FCF8C2F0E94460ACF91BD
:103480000C9485148C2F0E94950B0E94E010BFCFE6
:103490000F931F93CF93C82F10E000E0893311F4EE
:1034A00000E510E08C2F0E94B1190115110531F4CF
:1034B0008C2FCF911F910F910C942D158FE99FE0C8
:1034C0000197F1F700C0000001501109EECF809381
:1034D000B0020C94631521E030E001C0220F8A9500
:1034E000EAF78091B002822B0C94671A21E030E059
:1034F00001C0220F8A95EAF720958091B0028223BD
:103500000C94671A9091B102809589238093B1023F
:10351000282F277039F4282F082E000C330B921710
:10352000130621F490915A0392FF07C08595859563
:1035300085950E94761A1092B10208958091B0028A
:10354000982F9670963019F488600C94671A877FCC
:10355000FCCFCF92DF92EF92FF92CF93DF93EC01FB
:103560008FB7F894C0900403D0900503E090060351
:10357000F09007030E94600DC6018C1B9D0BDF912C
:10358000CF91FF90EF90DF90CF9008954F925F9290
:103590007F928F929F92AF92BF92CF92DF92EF92E3
:1035A000FF920F931F93CF93DF93CDB7DEB7A8970A
:1035B0000FB6F894DEBF0FBECDBFFE01319688E195
:1035C000DF011D928A95E9F76AE3E62E61E0F62EA7
:1035D00010E000E09E2E8F2ECC24C394D12CEAE480
:1035E000AE2EE1E0BE2EF70181917F018F3F09F4FD
:1035F00054C0F894E82FE295EF70F0E021A18F70AD
:10360000A60102C0440F551F8A95E2F7CA01922F06
:10361000982B91A392A18095892382A3789400C0CE
:103620009601002E02C0220F331F0A94E2F7A9016F
:1036300040955095A4E4B1E0492C582C7D90F201BE
:10364000819191912F01FFEF7F1609F46AC0672DD8
:1036500062956F70605E70E0FB01608170E0F72D35
:10366000FF7002C075956795FA95E2F760FD59C045
:10367000822B932BB20162507109FB0191838083ED
:10368000AA16BB06D9F6F701319780818F3F11F05A
:103690000E94AA09F0EAFA95F1F70F5F1F4F0A306E
:1036A000110509F0A0CF48E150E0692D782D81E4A3
:1036B00093E00E94762D8C01892B49F088E1E92D59
:1036C000F82DA1E4B3E001900D928A95E1F7F09016
:1036D00040030115110541F181E080931D030E9413
:1036E0006F1490931C0380931B0380911B03909194
:1036F0001C030E94A91A059778F0AF2DB0E0AA0F1D
:10370000BB1FA85DBC4F8CE0E1E4F3E001900D929B
:103710008A95E1F710921D03012B51F081E090E0B2
:103720006CC084239523A6CF80911D038111DDCF2A
:103730000E94830DE0914003882309F474C03CE0AB
:10374000A32E6E0149E1C40ED11CD601FA2D1D92A3
:10375000FA95E9F7EE2EF12CEE0CFF1CA701485D5F
:103760005C4F7A0106E010E12DEB31E0A601B701D4
:1037700081E00E94E60EB82E03E61FE023ED31E063
:10378000A601B7010E94E60EB822A9F48091270392
:103790008F5F80932703863010F480E02EC0E09185
:1037A0002603F0E0EE0FFF1FE85DFC4FDF011D92E6
:1037B000AA94E9F7B3CF10922703E0912603F0E033
:1037C000EE0FFF1F8F01085D1C4FD601AE014B5D50
:1037D0005F4F90E0F801619171918F012D913D91C2
:1037E0006217730731F0CF010297FC013183208308
:1037F0009B2D4A175B0771F7892FA8960FB6F8948F
:10380000DEBF0FBECDBFDF91CF911F910F91FF9013
:10381000EF90DF90CF90BF90AF909F908F907F9070
:103820005F904F900895F0E0EE0FFF1FE85DFC4FB2
:10383000F8948CE0A0E6B3E001900D928A95E1F750
:1038400080E693E00E94B80C80935F037894F8942C
:10385000C0906C03D0906D03E0906E03F0906F0306
:103860008091220390912303A0912403B09125031A
:10387000C816D906EA06FB06F1F0C0922203D092E0
:103880002303E0922403F09225030E94830D81110B
:1038900012C00E94620D6DA37EA38FA398A7C61AC3
:1038A000D70AE80AF90AC0921E03D0921F03E092D9
:1038B0002003F0922103789470CFFF920F931F930F
:1038C000CF93DF93C62FD42F122F8823A9F06093B4
:1038D000AB020E946F149093470280934602C77018
:1038E00081E001C0880FCA95EAF7DF91CF911F915F
:1038F0000F91FF900C944C118091AB02681334C06F
:1039000080914602909147020E94A91A883C910535
:1039100058F500E20D0FCD17A9F0C770FF24F394FE
:103920008F2D01C0880FCA95EAF70E945611083002
:1039300048F48D2F877001C0FF0C8A95EAF78F2D10
:103940000E944C11812F0E94481A0830A0F4D770B1
:1039500081E001C0880FDA95EAF7DF91CF911F91DE
:103960000F91FF900C945611C77081E001C0880F31
:10397000CA95EAF7F2CFDF91CF911F910F91FF9097
:1039800008953F924F925F926F927F928F929F9293
:10399000AF92BF92CF92DF92EF92FF920F931F935D
:1039A000CF93DF9300D000D0CDB7DEB77C01FC0110
:1039B0009081818123813481232B21F089238F3FC2
:1039C00009F0DDC40F900F900F900F90DF91CF9111
:1039D0001F910F91FF90EF90DF90CF90BF90AF902D
:1039E0009F908F907F906F905F904F903F90089541
:1039F000980122513F452031310508F06CC48FEF0A
:103A000093E00E94342D025147EF842E42E0942E21
:103A1000882369F18091B1028770A1F2F701828158
:103A2000882381F282E00F900F900F900F90DF912A
:103A3000CF911F910F91FF90EF90DF90CF90BF90AB
:103A4000AF909F908F907F906F905F904F903F903E
:103A50000C94821A8114F4E09F06E1F2C4010E94E2
:103A6000342D811101C001502FEF821A920A0111E9
:103A7000F1CF8091500190915101A0915201B091EC
:103A8000530189839A83AB83BC83442443943AE0F3
:103A9000332E84010F5F1F4FC4010E94342D898390
:103AA0001A82882309F4B6CF9FEF980F9330F8F469
:103AB0008A83498232E0830E911CC8010E94342D12
:103AC0008B83882309F4A6CF8E010F5F1F4FF80167
:103AD00020812223F1F29181213009F044C08281BA
:103AE000913039F40E5F1F4F0E94481A08C04801F8
:103AF000EBCF923039F40E5F1F4F0E94B1190F5F68
:103B00001F4FE5CF933029F40E5F1F4F0E942D15F4
:103B1000F6CF943019F00F5F1F4FF1CF0E5F1F4F9C
:103B200020E030E0B8016F5F7F4FF80141818053A2
:103B3000990B8A30910560F02115310501F38FE969
:103B40009FE00197F1F700C0000021503109F4CF48
:103B5000329EF001339EF00D11249C012E0F3F1F69
:103B6000842F8B01DFCFE22FF0E0EC59FB4F549014
:103B7000822F86958695869590E0FC01EC5AFB4F46
:103B8000E4912770F0E0022E02C0F595E7950A94C3
:103B9000E2F73F0131E063227724FC01EC5BFB4F4D
:103BA000A490B12C022E02C0B594A7940A94E2F717
:103BB000E1E0AE22BB24FC01EC5CFB4FC490D12CB5
:103BC00002C0D594C7942A95E2F7F1E0CF22DD2414
:103BD0006114710419F081EE0E94B119A114B104AD
:103BE00019F086EE0E94B119852D0E94481AAB2863
:103BF00019F086EE0E942D15672819F081EE0E94BB
:103C00002D15CD2809F47BCF8CE26ECF81E00E9488
:103C10006B1A0E949E1AFECE81E00E94761AF9CF9E
:103C200082E0F5CF053F2CE51207D1F027E245EE03
:103C300066EE063F3CE5130741F027E245EE64EEF1
:103C4000043F9CE5190709F06BC30E945D1CE2CE9E
:103C500027E245EE65EEF9CF26E241EE60EEF5CFC4
:103C600026E241EE62EEF1CF98012A5F3C45293011
:103C7000310508F464C306312CE5120709F498C332
:103C80000A358DE5180709F438C108F002C1013082
:103C9000ECE51E0709F41CC10E3DFCE51F0709F405
:103CA00029C101151C4509F406C1F7018281C080B4
:103CB000D180882309F425C1C6010E94AF12182FB4
:103CC000682FC6010E943E0BB601812F0E94A212EE
:103CD0000E9421088C01F7019280858082942FE058
:103CE00082228091B1028770A1F0C92C992091F0B5
:103CF000812F807F803421F080E2800F883048F06F
:103D000082E00E94821A8091B1028770CC24C39411
:103D10008111C12C812F82958F70A82EB12C8C30EF
:103D200008F02AC1F501E253F24D0C94272DF80159
:103D3000E350FC45809159038160E331F105B8F40B
:103D4000E652F24D0C94272DC8018A5F9C450997D5
:103D500008F005C3F801EB5FFC45E830F10590F48D
:103D6000E351F24D0C94272D80915903826080938A
:103D70005903F5C2809159038460F9CF80915903AA
:103D80008860F5CF80915A03816080935A03E7C21F
:103D900080915A038260F9CF809159038061E7CF07
:103DA000809159038062E3CF809159038064DFCF13
:103DB0000E948015809159038068D9CF8091590362
:103DC0008C60D5CF80915A038360DFCF80915903F7
:103DD0008E7FCDCF809159038D7FC9CF80915903BC
:103DE0008B7FC5CF80915903877FC1CF80915A03C4
:103DF0008E7FCBCF80915A038D7FC7CF809159039F
:103E00008F7EB5CF809159038F7DB1CF80915903BB
:103E10008F7BADCF0E948015809159038F77A7CFFC
:103E200080915903837FA3CF80915A038C7FADCFBC
:103E30008091590382FB992790F921E0922790FB0A
:103E400082F990FB83F993CF80915A03982F909534
:103E500091708E7F892B90FB81F997CF0E948015FE
:103E600090915903892F97FB87F9805880CF61E0A3
:103E70008EE090E00E94422D72C260E0F9CF809106
:103E8000AC02811104C089E20E94950BA4C285E3B3
:103E9000FBCF0B353DE5130791F10C351D4509F0BE
:103EA00004CF80915A0382FB882780F991E089270B
:103EB0000E94B713FACE0E9480159FEFE4E3FCE066
:103EC0009150E040F040E1F700C000000E94B60DC4
:103ED00090911803892F8E7F90FF81608093180343
:103EE00080FF05C086EF94E00E94280793CD84EE02
:103EF00094E0FACF0E94E3138DCD81E0D9CF80E02A
:103F0000D7CFC6010E946C0B182FDECEF12FFF70A9
:103F1000DF2E107F19F0D29490EFD9229920C9F0AA
:103F2000DD2069F080E2800F883010F001110BC0B5
:103F30008091AD028D298093AD020E94E010802F08
:103F40000E94B11919C08091B2028D298093B202EA
:103F5000F4CF802F0E942D15DD2071F0D09480E2E7
:103F6000800F883010F0011140C08091AD028D218A
:103F70008093AD020E94E01098E0A91AB108E4E035
:103F8000AE16B10410F40E94A60DCC20A9F08091C9
:103F9000B10280FD11C0F701128285958595859546
:103FA0000E946B1AC7010E94C11C8091B1028595C5
:103FB000859585950E94761A60E0C7010F900F9055
:103FC0000F900F90DF91CF911F910F91FF90EF9085
:103FD000DF90CF90BF90AF909F908F907F906F9029
:103FE0005F904F903F900C94DE128091B2028D2131
:103FF0008093B202BFCF212F2F70D22E107F1032AC
:1040000019F0D29480EFD822002369F0013081F1B9
:104010009920D9F1882091F1F701858180FF8FCF18
:104020008F7085832BC09920B1F09091AE028D2DB9
:10403000892B811003C00E944C119ECF31E0831266
:10404000FACF20915A0322FD97CF981709F494CF05
:104050008093AE0291CF811006C00E94A20B8D2DDD
:104060000E94561189CF81E0881609F485CFF5CFDB
:10407000992031F095E0981508F47ECF8D2DDBCF97
:10408000E4E0E81508F478CFEACF882041F309335B
:1040900049F4FFEF27EE33E0F15020403040E1F7E4
:1040A00000C00000802F0E942D1566CF812F8695BD
:1040B0008695837061F0813009F05ECFC8019370FE
:1040C000911002C090E080E00E941E0B55CFC80105
:1040D0009370911002C090E080E00E94080B4CCFDA
:1040E000802F992029F00E94460A0E94851444CF0F
:1040F0000E948F0AFACF812F8370A1F591103CCFD7
:10410000802F829586958770880F880F402F4F707B
:10411000082E01C0440F0A94EAF7202F207104FFF3
:1041200007C02FE030E001C0220F8A95EAF7209502
:10413000169516951370123081F0822F842B133050
:1041400031F08091AF02113029F0242B82230E949C
:10415000521812CF842B822BFACF242B8091AF02DE
:104160008227F5CF992061F110FF06CF802F82952D
:1041700086958770880F880F402F4F70082E01C0DA
:10418000440F0A94EAF7202F207104FF07C02FE0A4
:1041900030E001C0220F8A95EAF720951695169512
:1041A0001370123099F0822F842B133031F08091EC
:1041B000B002113041F0242B82230E94671ADCCE1A
:1041C00011FFDACED3CF842B822BF7CF242B809113
:1041D000B0028227F2CF1F70992029F0812F0E9410
:1041E0006B1A802F28CF802F0E945611812F0E949A
:1041F000761AC2CE023F09F443C060F4003F11F1C9
:10420000013FB1F1992009F456C0811098CE812F59
:104210008F7133C0033FC9F1043FA1F7992009F41E
:104220003FC01F71812F0E946B1A80915A0382FD3B
:1042300007C0E8E01E9FC001112483608093B10293
:10424000812F1BC0992079F084E0881508F494CE62
:104250001F7181E090E001C0880F1A95EAF79091F4
:10426000B0028927AACF95E0981508F485CEF0CF43
:10427000812F8F71992009F4BACF0E946B1A7CCEDE
:10428000812F8F719920C9F3B2CF80E0992009F472
:1042900094CF1F7181E001C0880F1A95EAF78DCF86
:1042A00081E00E94821AF1E0F81508F065CE82E004
:1042B0000E94821A61CE882059F0093309F0F2CEAB
:1042C0002FEF37EE83E0215030408040E1F7E8CE19
:1042D000812F8F718CCF0031FFE51F0709F496CC39
:1042E00001312FE5120709F49BCC033F2CE512079F
:1042F00009F4B2CC08F096CC083D9CE5190709F406
:10430000A7CC28E241E0093DECE51E0709F4A2CC68
:1043100026E241EE61EE073DFCE51F0709F495CC6E
:10432000882309F441C01092AB020631ECE51E0768
:1043300008F09ACC0230FCE51F0708F4A8CC0E94D4
:10434000381390935A038093590306312CE51207D2
:1043500008F0FACC02303CE5130708F0E8CC609195
:10436000590310915A0384E090E00E94422D612F7E
:1043700082E290E00E94422D0E9480154BCB61E0CA
:10438000C7010E94DE128C01F7018281811130CBBE
:1043900000313FE5130709F43FCC01319FE51907D0
:1043A00009F0A3CF82E039CC06311C4509F07DCC61
:1043B0009091AD02882309F462CD892F8A7A91E029
:1043C00009F490E09093AC0269E2811165E388E31F
:1043D00092E00E94A80B0E94E0101CCB1F93CF9389
:1043E000DF938091EA02807FA9F48091E70288231D
:1043F00089F08091B402C091B3027091E50260919E
:10440000E602A091E802B091E902D62FD72316E088
:10441000C81304C0DF91CF911F91089590E01097C9
:1044200011F0DF3F19F401968770F2CF189F9001C9
:10443000199F300D1124F901EB54FD4F4181641394
:10444000F2CF40814713EFCF42814111ECCF43813E
:1044500054814A1B5B0B483C510528F78091EA02C6
:104460008F7080618093EA02F901E654FD4F8081EC
:104470008F708061808385EE92E00E94C11CDF9185
:10448000CF911F910C94340B8F929F92AF92BF9259
:10449000DF92EF92FF920F931F93CF93DF93CDB7ED
:1044A000DEB72B970FB6F894DEBF0FBECDBF8C01E1
:1044B00085E0F801DE01179601900D928A95E1F7EB
:1044C000F801E280A380B48085EE882E82E0982EE9
:1044D0009091E5028091E6022091E8023091E90294
:1044E0002115310529F0482F49234F3F09F028C1F4
:1044F000EE2009F433C1F801808191810E940B13F1
:10450000F82E882309F42AC186E0F801A5EEB2E06E
:1045100001900D928A95E1F70E94EE2121C0D09082
:10452000EA024D2D407F283C310508F0A8C0F80173
:1045300021814111C3C0FE2C281325C0808189131D
:1045400022C0E11020C08D2D8F7080618093EA021F
:1045500085EE92E00E94C11C8091EA02F8018583F9
:104560008F2D2B960FB6F894DEBF0FBECDBFDF9117
:10457000CF911F910F91FF90EF90DF90BF90AF9080
:104580009F908F9008953F81AB2829F0822F83233D
:104590008F3F09F090C080E0F82FF170DF2EE0919E
:1045A000B4024091B30256E080FD1CC0EE20C1F27F
:1045B0008091EA0281608093EA02F12CD1CF8E2FA4
:1045C00090E05E9FF0011124EB54FD4F61812613B2
:1045D00006C06081361303C06281E612E7CF019600
:1045E000E82FE770E413EBCF8F8198850E94FD12CE
:1045F000292F22952F70903260F0225F2F70223089
:1046000078F49F7051F0F8019581907F31F4D12CAE
:104610000AC09F7011F08823D1F3805E8830B8F310
:10462000C8010E94C11CFD2C9BCFF80180819181A3
:104630000E940B13882309F491C0EE2009F48EC068
:104640008091EA02803270F08091E5029091E6025A
:104650009A8389831B82BD82AC82DE82CE01019661
:104660000E94C11C86E0F801A5EEB2E001900D9217
:104670008A95E1F70E94EE21FF24F39471CF411156
:1046800032C085EE92E00E94C11C86E0F4011192D6
:104690008A95E9F792CFF801808191810E940B13EE
:1046A0008111E0CF8091EA0281608093EA02C80123
:1046B0000E94C11C55CF81E08E256ECF2813B5CF47
:1046C000F80180818913B1CFE110AFCFD582C80145
:1046D0000E94C11C86E0F801A5EEB2E001900D92A7
:1046E0008A95E1F73DCFF801218182139ECFF80131
:1046F000808189139ACFE11098CFD582C8010E949A
:10470000C11C86E0F40111928A95E9F729CFF801DE
:1047100021818213C0CFF80180818913BCCF8091A1
:10472000EA0280FDD7CF982F907FA1F28583903F3A
:1047300071F2982F907F905F8F70892B8583C7CF00
:10474000F090E702A501421B530B9A01F110E7CE4E
:10475000283C3105B0F6FE2CE110D9CFC8010E94EB
:10476000C11C8ACF1F93CF93DF93CDB7DEB7679776
:104770000FB6F894DEBF0FBECDBF342F4B8B252F65
:104780005C8B962F6D8B7E8B8F8B4E895F89611131
:104790001092B2021A8A3D872E879F87598B488BC9
:1047A00086E0FE013D96DE01179601900D928A95F6
:1047B000E1F7CE0107960E944422882389F016E093
:1047C0008091B4029091B302891349C067960FB6E5
:1047D000F894DEBF0FBECDBFDF91CF911F9108953A
:1047E00086E0FE013796DE01119601900D928A95C2
:1047F000E1F79F8188852091B3024091B4026A85D8
:104800007B85672BE1F289238F3FC9F230E0C90134
:104810000196877099274817190671F40E94801530
:104820001092B3021092B40286E0E5EEF2E0DF01EE
:104830001D928A95E9F7C3CF96E0929FD001939F8E
:10484000B00D1124AB54BD4FFE01319601900D9275
:104850009A95E1F78093B3020E94340BB0CF819F09
:10486000C00111248B549D4F0E944422882309F4D7
:10487000ADCF8091B40290E0019687709927809324
:10488000B4029ECF78941F921FB61F9211248F936B
:104890009F93AF93BF938091040390910503A091E0
:1048A0000603B09107030196A11DB11D8093040377
:1048B00090930503A0930603B0930703BF91AF91B4
:1048C0009F918F911F901FBE1F901895CDB7DEB797
:1048D000E1970FB6F894DEBF0FBECDBF84B7877FD8
:1048E00084BF0FB6F894A89580916000886180938A
:1048F0006000109260000FBE80E890E00FB6F89460
:1049000080936100909361000FBE85B7806885BF7A
:1049100085B7806885BF8BE59EE0909337028093D2
:1049200036020E946F0C0E94FF0C8091E2008460AE
:104930008093E200789480911903882399F0809104
:10494000E9001091EC001795112717958F70182B1F
:104950001092E9008091E80083FD0E948B151F7082
:104960001093E90082E084BD93E095BD9AEF97BD76
:1049700080936E0010921E0310921F03109220036A
:10498000109221030E94830D809300010E94830DE9
:1049900081110E94C32A8091000181112AC087E001
:1049A000E4E5F1E0DE01119601900D928A95E1F7C0
:1049B000FE01389685E0DF011D928A95E9F78CE0CB
:1049C0003797A4E4B1E001900D928A95E1F78AE06F
:1049D000E7EEF1E0DE01919601900D928A95E1F704
:1049E0008AE0FE01B196AAE3B1E001900D928A95AA
:1049F000E1F78091000196E0811190E090934003EF
:104A000086E0891B809326030AE311E0A4E4EA2EE2
:104A1000A1E0FA2EF80181918F018F3F11F00E94E1
:104A2000AA09E016F106B1F704E411E0FAE4EF2E6A
:104A3000F1E0FF2ED8018D918D018F3F11F00E9482
:104A4000AA09E016F106B1F788E1E1E4F3E0DF013D
:104A5000282F1D922A95E9F7E8E2F3E0DF011D9285
:104A60008A95E9F790E080E00E943C2D8A3E9E4FB7
:104A700011F00E94E31382E090E00E94342D8093B5
:104A800018030E94381390935A03809359030E948D
:104A9000C61AEFE3FCE93197F1F700C000000E946D
:104AA000C61A8091280380FF17C06FEF83E290E061
:104AB0000E94422D6FEF84E290E00E94422D6FEF42
:104AC00085E290E00E94422D6FEF7FEF90E080E062
:104AD0000E94602D0E94B60D83E090E00E94342D6C
:104AE0000E9452180E94830D811103C082E30E942C
:104AF0003F2C83E290E00E94342D813209F0A8C35C
:104B000084E290E00E94342D883009F0A1C385E250
:104B100090E00E94342D853109F09AC381E091E044
:104B20009093F0028093EF028EEE93E00E942807AC
:104B300080911903853079F48AEE93E00E9428076A
:104B400000E112E180911903853009F440C00E9410
:104B500080150E94A60D0E94C61A81110E94620D46
:104B600078E2E72E73E0F72EA5E5B2E0BCA7ABA78D
:104B7000F8AAEFA610E000E0EBEA4E2EE3E05E2E8E
:104B800009ABAFA5B8A9CD90DD90B8ABAFA7EBA5A9
:104B9000FCA561907190FCA7EBA76C147D0409F053
:104BA00052C00F5F1F4F0C30110551F78FEF89A3D3
:104BB0008AA31BA20E946F148160782F9DA38CA3EF
:104BC00049A15AA16BA1892F0E94B22371C0809183
:104BD0001903843021F110927C0288E190E0A0E476
:104BE0000FB6F894A895809360000FBEA093600064
:104BF00083B7817F846083BF83B7816083BF7894EC
:104C0000889583B78E7F83BF0FB6F894A89580915F
:104C10006000886180936000109260000FBE8091F8
:104C20006D02882309F48ECF0E94C61AE8E2F3E0F1
:104C300081919191892B09F0F5C280E493E08E1760
:104C40009F07B1F77FCF8091180381FD18C16C24B5
:104C50007D24912CAA24A394B12CC3018A219B21E9
:104C6000892B09F445C10E94830D8823B1F09982F4
:104C7000A9A9AA83CA20DB2081E0CD2809F480E01D
:104C80008B830E946F148160782F9D838C83498170
:104C90005A816B81892F0E94B223000F111FF801E6
:104CA000EB5AFD4F808191818A259B2591838083DA
:104CB00086E0E5EFF2E0DE01119601900D928A9513
:104CC000E1F7C090F702D090F8020091F90210913C
:104CD000FA021092F7021092F8021092F902109262
:104CE000FA028C2D8D2991F08091F3029091F402BB
:104CF0000E94A91A9C018091FC02882309F4FFC03C
:104D000090910C019217130608F407C1802F812B94
:104D100009F448C08091F1029091F2020E94A91A10
:104D20009C018091FB02882309F4B4C22536310529
:104D3000C8F18F3F19F08F5F8093FB02002359F079
:104D40000E940D0A9FEF10160CF491E0899F802DB0
:104D500011248093F902112359F00E940D0A9FEF4C
:104D600011160CF491E0899F802D11248093FA0292
:104D70003091F9022091FA023323A1F0222391F01D
:104D800045EB3403C0011124992309F405C1909324
:104D9000F90245EB240390011124332309F400C1E7
:104DA0003093FA028091F7029091F802892B90914A
:104DB000F902892B9091FA02892B11F00E94851437
:104DC00086E0FE013196A5EFB2E001900D928A9542
:104DD000E1F70E94A60D90915402891739F10E94C3
:104DE000A60D182F809354028091180382FF1EC0D5
:104DF00080FF1CC087ED93E00E9428078091180374
:104E000080FF14C01F921F9382ED93E09F938F93B6
:104E10000E94C107809118030F900F900F900F9080
:104E200080FF04C080ED93E00E9428078091190361
:104E3000843009F07DCE83E08093E9008091E80022
:104E400082FF76CE8091E80090E085FF06C00E9448
:104E50003E0C882309F4A8C091E08091E8008B778C
:104E60008093E800992309F463CEE981E150E331AE
:104E700008F017C1F0E0EB50F24D0C94272D89EBB0
:104E800093E00E94280758E2852E53E0952EB12C1E
:104E9000A12CBF92AF9284EB93E09F938F930E94DB
:104EA000C10781EB93E00E942807F40180813180E3
:104EB000F2E08F0E911C0E94CA07282E832D0E94BB
:104EC000CA072F928F935F924F920E94C10789EA7F
:104ED00093E00E9428072FEFA21AB20A0FB6F894A7
:104EE000DEBF0FBECDBF9CE0A916B10491F6AFCED8
:104EF0009394AA0CBB1CBAE09B12AFCE52CE409149
:104F00000B01EAE04E9FA00111244217530708F05D
:104F1000FDCE8F5F8093FC0202C08F3FD1F7CC2083
:104F200059F00E94C3099FEF1C140CF491E0899F73
:104F3000802D11248093F702DD2059F00E94C309CF
:104F40009FEF1D140CF491E0899F802D1124809314
:104F5000F8023091F702332309F4D8CE2091F802F9
:104F6000222309F4D3CE45EB3403C0011124992345
:104F700059F09093F70245EB240390011124332359
:104F800039F03093F802C2CE81E08093F702F3CF7C
:104F900081E08093F802BACE81E08093F902F9CEE5
:104FA00081E08093FA02FECE00E210E0CE0101968D
:104FB0006C018091E80085FD0AC08091E8008B7744
:104FC0008093E8000E943E0C882399F345CF80919E
:104FD000F100D6018D936D010150110951F73CCFBD
:104FE0001A8289E08B8311C08A81823009F449C119
:104FF000833089F1813009F054C00E94620D0E9413
:105000002D2D6B837C838D839E8380911903843047
:1050100009F08ECD8091E9001091EC0017951127D1
:1050200017958F70182B82E08093E9008091E8003B
:1050300080FF0DC050E040E060E270E0CE010196DC
:105040000E948E0C8091E8008E778093E8001F709C
:105050001093E9006DCDFE013196D7018C91119628
:105060009C91B2E0EB0EF11C92838383329620E494
:10507000E21623E0F20689F7C8CF8A81823089F4EC
:105080008B819C81AD81BE818BA79CA7ADA7BEA75C
:10509000BC01CD010E942D2D86E290E00E94422DA0
:1050A000B4CF8FEF8983B1CF4C816B818A810E940D
:1050B0007C129827892798279E838D83A6CF0D8100
:1050C0001E811027012710278A81EB8094E1E99E39
:1050D00070011124A0EF8A9FE00CF11C11248C8137
:1050E00090E0880F991FE80EF91E612FC70187967F
:1050F0000E94422D602FC7018896D0CF0E94461390
:1051000084CF80E18A8381CF81E08A836ACF0A815C
:105110001B811027012710278C816801C80ED11C24
:105120007E01B5E0EB0EF11CC80189509D4F0C15B6
:105130001D0509F46ACF0930E1E01E0740F40E9422
:10514000342DD7018D937D010F5F1F4FEDCF80E090
:10515000F8CF0A811B81102701271027FE01319605
:105160007F018C816F01C80ED11CC80189509D4FF1
:10517000CE14DF0409F449CF0930F1E01F0728F409
:10518000D70114966C910E94422D0F5F1F4FBFEF05
:10519000EB1AFB0AEACF0E94A71337CF83E0B2CF06
:1051A0000A811B811027012710278C816801C80EF6
:1051B000D11C7E01E5E0EE0EF11CC80187960C15AE
:1051C0001D0509F422CF003DF2E01F0740F40E94C4
:1051D000342DD7018D937D010F5F1F4FEECF80E0FF
:1051E000F8CF0A811B81102701271027FE01319675
:1051F0007F018C816F01C80ED11CC8018796CE1427
:10520000DF0409F402CF003DF2E01F0728F4D701C4
:1052100014966C910E94422D0F5F1F4FBFEFEB1A47
:10522000FB0AEBCF09BD19BD09B400FEFDCF80918B
:10523000D8008F7D8093D8008091E00082608093B9
:10524000E0008091E00081FDFCCF0E9480157ACCC7
:1052500060E086E290E00E94422D0E9446130E9488
:10526000A71361E283E290E00E94422D68E084E2AD
:1052700090E00E94422D65E185E290E00E94422D7F
:105280004DCC86E290E00E94342D1B821C821D8250
:105290008E83BBCE2D32314008F04DCD83CD1F9291
:1052A0000F920FB60F9211242F933F934F935F935A
:1052B0006F937F938F939F93AF93BF93EF93FF93DE
:1052C0008091E10082FF15C08091E20082FF11C051
:1052D0008091E1008B7F8093E100209148022F5F55
:1052E000822F62E30E94072D992309F4BCC020930A
:1052F00048028091DA0080FF28C08091D80080FFAA
:1053000024C08091DA008E7F8093DA008091D900EA
:1053100080FFDEC080E189BD82E189BD09B400FE65
:10532000FDCF81E08093190385E993E00E9428076F
:1053300080914B02811109C00E946F0C0E94FF0CEA
:105340008091E20084608093E2008091E10080FF20
:105350001BC08091E20080FF17C08091E2008E7F29
:105360008093E2008091E20080618093E20080916E
:10537000D80080628093D80019BC85E0809319031F
:105380008DE993E00E9428078091E10084FF2BC003
:105390008091E20084FF27C080E189BD82E189BD60
:1053A00009B400FEFDCF8091D8008F7D8093D80096
:1053B0008091E1008F7E8093E1008091E2008F7EFA
:1053C0008093E2008091E20081608093E20080910E
:1053D0004A02882309F486C084E08093190381EA95
:1053E00093E00E9428078091E10083FF2BC0809109
:1053F000E20083FF27C08091E100877F8093E10076
:1054000082E08093190310924A028091E1008E7F1E
:105410008093E1008091E2008E7F8093E200809192
:10542000E20080618093E20042E060E080E00E9460
:10543000CF0C8091F00088608093F00085EA93E0C3
:105440000E942807FF91EF91BF91AF919F918F919B
:105450007F916F915F914F913F912F910F900FBE70
:105460000F901F9018951092480280916F02882328
:1054700009F43FCF809119038430B9F49091E90089
:105480008091EC008795882787959F70892B95E000
:105490009093E9009091EB0090FF04C09091EE0092
:1054A00097FD08C08F708093E90010926F0221CFA2
:1054B0001092F1009091E80095FDFACF9091E800EC
:1054C00090FFF0CF9091E8009E779093E800EACFAC
:1054D00019BC1092190389E993E00E9428071092E1
:1054E0004B0233CF8091E30087FD02C081E075CF8E
:1054F00083E073CF1F920F920FB60F921124FF9289
:105500000F931F932F933F934F935F936F937F93CB
:105510008F939F93AF93BF93CF93DF93EF93FF93BB
:1055200009EE10E0F8018081C091EC00C795CC270E
:10553000C7958F70FC2EF82A1082C0EFD0E08881CA
:10554000877F888378940E948B15F8011082888168
:1055500088608883CF2DCF70C083FF91EF91DF915A
:10556000CF91BF91AF919F918F917F916F915F91FB
:105570004F913F912F911F910F91FF900F900FBE70
:105580000F901F9018951092B90088E48093B8008E
:1055900008959F92AF92BF92CF92DF92EF92FF92C7
:1055A0000F931F93CF93DF93B82EEB010E946F14DC
:1055B0006C01EE24E394F12CC431D10560F025E0B8
:1055C000E22EF12CCF3FDC0731F0CE0164E170E038
:1055D0000E94F32C7B0184EAA82E94E8992E109265
:1055E000BC00A092BC000E946F148C018091BC0092
:1055F00087FF0CC08091B900887F883031F180919D
:10560000B900887F803109F10FEF08C00E946F1444
:10561000801B910B8E159F0548F30EEF1FEFCF3FB8
:10562000DC07E9F2C6010E94A91A8C179D07B8F29F
:10563000C801DF91CF911F910F91FF90EF90DF9004
:10564000CF90BF90AF909F900895B092BB00909282
:10565000BC000E946F148C018091BC0087FF0AC0BF
:105660002091B900287F283111F0203469F600E03C
:1056700010E0DECF0E946F14801B910B8E159F05EA
:1056800058F3CBCF0F931F93CF93DF93EB0180930E
:10569000BB0084E88093BC000E946F148C01809151
:1056A000BC0087FF11C02091B900287F81E090E005
:1056B000283211F490E080E0919581959109DF9175
:1056C000CF911F910F910895CF3FDC0741F30E94C6
:1056D0006F14801B910B8C179D0708F38EEF9FEFC3
:1056E000EECF0F931F93CF93DF93EC0184EC809365
:1056F000BC000E946F148C018091BC0087FF08C021
:105700008091BB0090E0DF91CF911F910F910895A0
:10571000CF3FDC0789F30E946F14801B910B8C171D
:105720009D0750F38EEF9FEFEECF0F931F93CF9314
:10573000DF93EC0184E88093BC000E946F148C011D
:105740008091BC0087FF08C08091BB0090E0DF9192
:10575000CF911F910F910895CF3FDC0789F30E94ED
:105760006F14801B910B8C179D0750F38EEF9FEFEA
:10577000EECFCF92DF92EF92FF920F931F93CF93D2
:10578000DF93C62F6A017901B8010E94C92A9C01E2
:1057900097FD0DC0B8018C2F0E94422B9C01E601A1
:1057A000EC0CFD1CCE15DF0511F037FF0DC084E9B0
:1057B0008093BC00C901DF91CF911F910F91FF90A1
:1057C000EF90DF90CF900895B80189910E94422B0D
:1057D0009C01E8CFCF92DF92EF92FF920F931F933D
:1057E000CF93DF93D82EC62EEA017901B8010E942B
:1057F000C92A9C0197FD17C0B8018C2D0E94422B2D
:105800009C0197FD10C0B8018D2D81600E94C92AAE
:105810009C01D12CC12C81E0E81AF108CE14DF04E0
:1058200010F537FF12C084E98093BC00C901181637
:10583000190614F490E080E0DF91CF911F910F9151
:10584000FF90EF90DF90CF900895C8010E94712BD8
:105850009C0197FD04C0FE01EC0DFD1D80838FEFC0
:10586000C81AD80ADBCF37FDDECFC8010E94952BBE
:105870009C0197FDD8CFCE0DDF1D8883D4CF8093B8
:10588000BA0085EC8093BC0008951F920F920FB66A
:105890000F9211242F933F934F935F936F937F93B6
:1058A0008F939F93AF93BF93CF93DF93EF93FF9328
:1058B0008091B900982F987F9038F1F038F49923AF
:1058C00009F48EC0903699F081E034C0887E883A21
:1058D000D9F7E0915C03F0E0E25AFC4F80818093BD
:1058E000BB0080915C038F5F80935C03EDCF1092CF
:1058F0005B0310925D03E8CF80915B03811139C097
:105900008091BB0080935C0380915C03823178F1CD
:1059100010925C0380E091E090935B0340915C0304
:1059200020911501309116014217130609F090E0FD
:1059300090935D032091BC0030E4839FC00111244B
:10594000822B85688093BC00FF91EF91DF91CF910E
:10595000BF91AF919F918F917F916F915F914F9187
:105960003F912F910F900FBE0F901F90189581E0DF
:10597000D2CFE0915C03F0E08091BB00E25AFC4F93
:10598000808380915C038F5F80935C0380915D03D3
:10599000882309F499CFC0910602D0910702A8810B
:1059A0003AE0A302D0011124AE5EBE4F1896ED91ED
:1059B000FC911997309709F487CF16962D913C9159
:1059C00017972C0F3D1F13966D917C9114976C0FB8
:1059D0007D1F15964C91159712968C91099574CF51
:1059E0001092BC0071CFAA1BBB1B51E107C0AA1FBC
:1059F000BB1FA617B70710F0A61BB70B881F991F70
:105A00005A95A9F780959095BC01CD010895991BF1
:105A100079E004C0991F961708F0961B881F7A95A5
:105A2000C9F78095089597FB072E16F4009407D0C8
:105A300077FD09D00E94F32C07FC05D03EF4909529
:105A400081959F4F0895709561957F4F0895EE0F52
:105A5000FF1F0590F491E02D099469279627692787
:105A60007827872778270895F999FECF92BD81BDC1
:105A7000F89A992780B50895A8E1B0E042E050E097
:105A80000C94682D262FF999FECF92BD81BDF89A0E
:105A9000019700B4021639F01FBA20BD0FB6F89472
:105AA000FA9AF99A0FBE08950396272F0E94432D64
:105AB0000E94422D252F0E94432D242F0C94432D0C
:105AC0000196272F0E94432D0C94422DDC01CB011F
:105AD000FC01F999FECF06C0F2BDE1BDF89A3196FE
